{
  "contracts/MyFirstContract.sol": {
    "MyFirstContract": {
      "abi": [
        {
          "inputs": [],
          "stateMutability": "nonpayable",
          "type": "constructor"
        },
        {
          "inputs": [],
          "name": "getNumber",
          "outputs": [
            {
              "internalType": "uint256",
              "name": "",
              "type": "uint256"
            }
          ],
          "stateMutability": "view",
          "type": "function"
        },
        {
          "inputs": [
            {
              "internalType": "uint256",
              "name": "_num",
              "type": "uint256"
            }
          ],
          "name": "setNumber",
          "outputs": [],
          "stateMutability": "nonpayable",
          "type": "function"
        }
      ],
      "evm": {
        "bytecode": {
          "linkReferences": {},
          "object": "608060405234801561001057600080fd5b506000805560c3806100236000396000f3fe6080604052348015600f57600080fd5b506004361060325760003560e01c80633fb5c1cb146037578063f2c9ecd8146048575b600080fd5b60466042366004606d565b6062565b005b604e6067565b604051605991906084565b60405180910390f35b600055565b60005490565b600060208284031215607d578081fd5b5035919050565b9081526020019056fea26469706673582212201ef37e1ed23a87649e3c3174f3448798ce67818bbaba857ee1703bd066eeb7bd64736f6c63430008000033",
          "opcodes": "PUSH1 0x80 PUSH1 0x40 MSTORE CALLVALUE DUP1 ISZERO PUSH2 0x10 JUMPI PUSH1 0x0 DUP1 REVERT JUMPDEST POP PUSH1 0x0 DUP1 SSTORE PUSH1 0xC3 DUP1 PUSH2 0x23 PUSH1 0x0 CODECOPY PUSH1 0x0 RETURN INVALID PUSH1 0x80 PUSH1 0x40 MSTORE CALLVALUE DUP1 ISZERO PUSH1 0xF JUMPI PUSH1 0x0 DUP1 REVERT JUMPDEST POP PUSH1 0x4 CALLDATASIZE LT PUSH1 0x32 JUMPI PUSH1 0x0 CALLDATALOAD PUSH1 0xE0 SHR DUP1 PUSH4 0x3FB5C1CB EQ PUSH1 0x37 JUMPI DUP1 PUSH4 0xF2C9ECD8 EQ PUSH1 0x48 JUMPI JUMPDEST PUSH1 0x0 DUP1 REVERT JUMPDEST PUSH1 0x46 PUSH1 0x42 CALLDATASIZE PUSH1 0x4 PUSH1 0x6D JUMP JUMPDEST PUSH1 0x62 JUMP JUMPDEST STOP JUMPDEST PUSH1 0x4E PUSH1 0x67 JUMP JUMPDEST PUSH1 0x40 MLOAD PUSH1 0x59 SWAP2 SWAP1 PUSH1 0x84 JUMP JUMPDEST PUSH1 0x40 MLOAD DUP1 SWAP2 SUB SWAP1 RETURN JUMPDEST PUSH1 0x0 SSTORE JUMP JUMPDEST PUSH1 0x0 SLOAD SWAP1 JUMP JUMPDEST PUSH1 0x0 PUSH1 0x20 DUP3 DUP5 SUB SLT ISZERO PUSH1 0x7D JUMPI DUP1 DUP2 REVERT JUMPDEST POP CALLDATALOAD SWAP2 SWAP1 POP JUMP JUMPDEST SWAP1 DUP2 MSTORE PUSH1 0x20 ADD SWAP1 JUMP INVALID LOG2 PUSH5 0x6970667358 0x22 SLT KECCAK256 0x1E RETURN PUSH31 0x1ED23A87649E3C3174F3448798CE67818BBABA857EE1703BD066EEB7BD6473 PUSH16 0x6C634300080000330000000000000000 "
        },
        "methodIdentifiers": {
          "getNumber()": "f2c9ecd8",
          "setNumber(uint256)": "3fb5c1cb"
        }
      }
    }
  }
}